:060000000A128A110C280F
:10000800FE00030EF0000A08F1000A128A11D52F2B
:100018000A128A110F2883134F30FD000E30FE009C
:100028002F30FF00483084000A128A159B260A12D6
:100038008A110A128A11FE270A128A11FB0020303F
:1000480084003C300A128A153E260A128A11FA01E7
:1000580083010A128A118A2D83120313C2004B08E6
:1000680003193728382862280A128A1561260A12C5
:100078008A111130F6008030F7000A128A15042719
:100088000A128A118530F600C030F7000A128A1564
:1000980004270A128A115D30F600D030F7000A12E0
:1000A8008A1504270A128A1183120313B101B001B9
:1000B800AF01AE01AD010130AC00CB012A082B0421
:1000C8000319672868287D28AA01AB010130A20717
:1000D8000318A30A0030A30701302302F4300319E0
:1000E8002202031C782879287D28A201A301013067
:1000F800AC06C530C0003008303E0A128A15AA2660
:100108000A128A11C63083120313C0002F08303E2A
:100118000A128A15AA260A128A11C73083120313F3
:10012800C0003A300A128A15AA260A128A11C83063
:1001380083120313C0002E08303E0A128A15AA261D
:100148000A128A11C93083120313C0002D08303EE9
:100158000A128A15AA260A128A11831203132C0876
:10016800031DB728B828EB28DD28C830C000203088
:100178000A128A15AA260A128A11EB28C930C00069
:1001880020300A128A15AA260A128A11EB28C530CD
:10019800C00020300A128A15AA260A128A11EB28F2
:1001A800C630C00020300A128A15AA260A128A11FF
:1001B800EB283108003A0319B928013A0319C22873
:1001C800033A0319CB28013A0319D428EB282A301B
:1001D800831203134206031DF228F328F828B101FD
:1001E800B001AF01AE01AD010A3042020318FD288B
:1001F800FE281F294208C30011294308AE00013018
:10020800B1071F294308AD0003294308B00003299B
:100218004308AF000430B1001F293108003A031920
:100228000129013A03190629033A03190929013A50
:1002380003190C291F2923304206031D24292529C7
:100248004E2904303106031D2A292B294E290A304C
:10025800F20030080A128A1584260A128A118312BB
:1002680003132F07B9000A30F2002E080A128A1564
:1002780084260A128A11831203132D07B800B601C7
:10028800B5010130CB000430BB000A128A15612683
:100298000A128A11080083120313C4004A080319BA
:1002A800562957295F290A128A1561260A128A11C6
:1002B80083120313CA0104304406031D6429652907
:1002C8006E293608031D69296A296D290130B6008F
:1002D8006E29B60105304406031D73297429A42923
:1002E8001E30B8073C303802031C7B297C29A4291E
:1002F8003C30F2000030F3003808C200C301420865
:10030800F4004308F5000A128A1164260A128A11B9
:10031800720883120313B9073C30F2000030F3006F
:100328003808C200C3014208F4004308F5000A1265
:100338008A112A270A128A11720883120313B80035
:1003480006304406031DA929AA29B529B60101309A
:10035800CA000530BB000A128A1561260A128A11E2
:100368006B2A34080319B929BA29D129B4013608E6
:100378000319BF29C029D12938080319C429C52957
:10038800C8290130B802D12939080319CC29CD2947
:10039800AA290130B9023B30B800EA30F6008030B3
:1003A800F7000A128A1504270A128A118530831267
:1003B8000313C0000A30F2000030F3003908C2000D
:1003C800C3014208F4004308F5000A128A116426A2
:1003D8000A128A117208303E0A128A15AA260A12CF
:1003E8008A11863083120313C0000A30F2000030ED
:1003F800F3003908C200C3014208F4004308F500BD
:100408000A128A112A270A128A117208303E0A1221
:100418008A15AA260A128A11873083120313C0008C
:100428003A300A128A15AA260A128A1188308312CB
:100438000313C0000A30F2000030F3003808C2008D
:10044800C3014208F4004308F5000A128A11642621
:100458000A128A117208303E0A128A15AA260A124E
:100468008A11893083120313C0000A30F200003069
:10047800F3003808C200C3014208F4004308F5003D
:100488000A128A112A270A128A117208303E0A12A1
:100498008A15AA260A128A113130F600C030F700F0
:1004A8000A128A1504270A128A11AC30F600903015
:1004B800F7000A128A1504270A128A11DC30F6009E
:1004C800D030F7000A128A1504270A128A11080088
:1004D800831203134C080319722A732A8F2A0A12EB
:1004E8008A1561260A128A116B30F600C230F700AD
:1004F8000A128A1504270A128A117830F6009230F7
:10050800F7000A128A1504270A128A1183120313A4
:10051800CC01A401A5012A082B040319942A952AC1
:10052800B12AAA01AB010130A4070318A50A0030BB
:10053800A50707302502D03003192402031CA52A79
:10054800A62AB12A0130CC00B901B8010330BB009A
:100558000A128A1561260A128A11080083120313E7
:1005680049080319B82AB92AD52A0A128A15612610
:100578000A128A110130F600C030F7000A128A15F3
:1005880004270A128A112130F6009030F7000A1267
:100598008A1504270A128A1183120313A001A101E4
:1005A800C90134080319D92ADA2AF42AB401013016
:1005B800A0070318A10A0030A10700302102033068
:1005C80003192002031CE92AEA2AF42A0130C90087
:1005D800B3010130BB000A128A1561260A128A117A
:1005E8000800043083160313810064308312031358
:1005F80081000B118B16080003308A000408840A56
:1006080082070034203420342034543449344D34A3
:1006180045342034553450342134213420342034A6
:100628002034003453344534543420345434493459
:100638004D3445343C344D344D343A3453345334CA
:100648003E34003445344E344A344F34593420341F
:1006580059344F345534523420344D3445344134B0
:100668004C34003434342E345334543441345234FA
:1006780054342F3452344534533455344D3445347E
:1006880000344D346934633472346F3477346134F0
:100698007634653420344F34763465346E3400341F
:1006A8005334453454342034543445344D34503460
:1006B80020343C342A3443343E3400342A343A3427
:1006C80043344C34523420342034203423343A34E4
:1006D80045344E345434003420344D344934433492
:1006E80052344F3420344D344F344434453420345C
:1006F800003450344F3457344534523420343D3468
:10070800313430343034303457340034543449348C
:100718004D3445343A34303430343A34303430346B
:100728000034503452344534483445344134543418
:1007380049344E344734003450346F347734653498
:10074800723420344F344E340034543445344D34EC
:10075800503420343D342034003435342E34503471
:10076800413455345334453400342A343A3443340C
:100778004C34453441345234003423343A3445340B
:100788004E34543445345234003432342E344734E1
:10079800723469346C346C34003431342E344D3452
:1007A8006934633472346F34003434342E3453343F
:1007B8007434613472347434003436342E3453341F
:1007C80054344F345034003433342E3443346F347B
:1007D8006E3476340034543449344D3445343D3421
:1007E800003483120313C30048080319FC2BFD2BA4
:1007F800082C0A128A1561260A128A118312031319
:10080800A601A701B201C8014F30F6008030F700F9
:100818000A128A1504270A128A11A430F600C03079
:10082800F7000A128A1504270A128A11C7308312A0
:100838000313C0006430F2000030F3002708F5000D
:100848002608F4000A128A15BE270A128A117208AD
:10085800303E0A128A15AA260A128A11C830831253
:100868000313C0000A30BC000030BD000A30F2009B
:100878000030F3002708F5002608F4000A128A154C
:10088800BE270A128A11730883120313BF00720865
:10089800BE000A128A1584270A128A1183120313CA
:1008A8003C08303E0A128A15AA260A128A11C93053
:1008B80083120313C0000A30BC000030BD002708B3
:1008C800BF002608BE000A128A1584270A128A1158
:1008D800831203133C08303E0A128A15AA260A120C
:1008E8008A11B430F600D030F7000A128A150427AE
:1008F8000A128A11BC30F600D930F7000A128A159C
:1009080004270A128A112A30831203134306031D8F
:100918008E2C8F2C922CA601A701B2010A3043021B
:100928000318972C982CC62C0330320203189D2CE0
:100938009E2CC62C4308C2002708F3002608F200A4
:100948000A30F4000030F5000A128A1529270A1225
:100958008A118312031342087207A6000030031895
:1009680001307307A70000302702B53003192602AB
:10097800031CBF2CC02CC42CB430A6000030A70028
:100988000130B20723304306031DCB2CCC2CDD2CC1
:10099800260827040319D12CD22CDD2C0130C800DD
:1009A8000A128A1561260A128A1103308312031368
:1009B800BB00080083120313881108158814081453
:1009C8006430F2000030F300FF30F2070318F30A36
:1009D800FF30F307720A031DF52C730A031DF52C6B
:1009E800F62CE82C831203130618FB2CFC2CFE2C87
:1009F8000130892D8618012D022D042D0230892DF4
:100A08000619072D082D0A2D0330892D8815081180
:100A1800881408146430F2000030F300FF30F20745
:100A28000318F30AFF30F307720A031D1F2D730A18
:100A3800031D1F2D202D122D831203130618252D9B
:100A4800262D282D0430892D86182B2D2C2D2E2D62
:100A58000530892D0619312D322D342D0630892D7A
:100A680088150815881008146430F2000030F30067
:100A7800FF30F2070318F30AFF30F307720A031D69
:100A8800492D730A031D492D4A2D3C2D831203134A
:100A980006184F2D502D522D0730892D8618552DAB
:100AA800562D582D0830892D06195B2D5C2D5E2D8D
:100AB8000930892D88150815881408106430F2004B
:100AC8000030F300FF30F2070318F30AFF30F30792
:100AD800720A031D732D730A031D732D742D662D61
:100AE800831203130618792D7A2D7C2D2A30892D2F
:100AF80086187F2D802D822D0030892D0619852D91
:100B0800862D882D2330892DFF3008000A128A157A
:100B180072260A128A1101300A128A15E1260A126F
:100B28008A1183120313C700D72D0A128A1181274D
:100B38000A128A118F2D47080A128A11FF250A12F4
:100B48008A118F2D0A128A116C220A128A118F2D8E
:100B580047080A128A1130200A128A118F2D470875
:100B68000A128A114F210A128A118F2D0A128A112C
:100B7800B2220A128A118F2D47080A128A11F52308
:100B88000A128A118F2D0A128A15BF260A128A1193
:100B98008F2D47080A128A1536260A128A118F2DB8
:100BA8000130BB008F2D3B08C500C6014608003A3E
:100BB8000319DF2DD42D4508003A0319992D013A60
:100BC80003199F2D033A0319A62D013A0319AC2DD9
:100BD800073A0319B32D013A0319BA2D033A031939
:100BE800C02D013A0319C72D0F3A0319CD2DD42D65
:100BF8000A128A110C28F800831203134D080319EE
:100C0800062E072E552E0A128A1561260A128A11F7
:100C1800CC30F6008030F7000A128A1504270A1231
:100C28008A11C430F600C030F7000A128A1504276A
:100C38000A128A11E330F6009030F7000A128A157A
:100C480004270A128A11D430F600D030F7000A12AD
:100C58008A1504270A128A1183120313CD01552E0F
:100C6800BA010230BB000130CD000A128A15612694
:100C78000A128A11632E0130BA000330BB0001301A
:100C8800CD00392E0230BA000630BB000130CD004D
:100C9800392E0330BA00B9011E30B8000430BB0049
:100CA800372E7808013A0319342E033A03193F2ED8
:100CB800013A0319462E073A03194D2E632E0800F0
:100CC800F701F31F682E692E702EF209F309F20A54
:100CD8000319F30A0130F700F51F732E742E7B2ECB
:100CE800F409F509F40A0319F50A0130F706F801C1
:100CF800F901720873040319822E832EB82E01306D
:100D0800F6008F2E01300310F20DF30DFF3E031D88
:100D1800872E0130F607F31F922E932E862E013070
:100D28000310F80DF90DFF3E031D942E730875028C
:100D3800031DA02E72087402031CA32EA42EAB2E32
:100D48007208F4027308031CF503F50278140130E5
:100D58000310F30CF20CFF3E031DAC2E0130F6021B
:100D6800031DB72EB82E932E77080319BC2EBD2E5F
:100D7800C22EF809F909F80A0319F90A7908F300E3
:100D88007808F2000800C330F700CD30F600F60B03
:100D9800CB2EF70BCB2EF20133300A128A154E27D1
:100DA8000A128A111B30F7009E30F600F60BDA2E75
:100DB800F70BDA2E0000F20133300A128A154E279B
:100DC8000A128A11A630F600F60BE82E0000F2018E
:100DD80033300A128A154E270A128A11F32EF42E7E
:100DE8000000F20102300A128A154E270A128A11EF
:100DF800A630F600F60BFE2E0000F20128300A128B
:100E08008A154E270A128A11A630F600F60B0A2F09
:100E18000000F20101300A128A154E270A128A11BF
:100E28000D30F700FB30F600F60B182FF70B182FD4
:100E38001D2FF2010C300A128A154E270A128A1148
:100E4800A630F600F60B262F00000800F701F51F64
:100E58002E2F2F2F362FF409F509F40A0319F50A56
:100E68000130F700F31F392F3A2F3F2FF209F3090A
:100E7800F20A0319F30A720873040319442F452F61
:100E8800722F0130F600512F01300310F20DF30DCF
:100E9800FF3E031D492F0130F607F31F542F552F2E
:100EA800482F73087502031D5B2F72087402031C18
:100EB8005E2F5F2F652F7208F4027308031CF50379
:100EC800F50201300310F30CF20CFF3E031D662FF0
:100ED8000130F602031D712F722F552F7708031961
:100EE800762F772F7C2FF409F509F40A0319F50AF0
:100EF8007508F3007408F2000800831203134E0803
:100F08000319872F882FA22F0A128A1561260A1221
:100F18008A119B30F600C430F7000A128A1504279C
:100F28000A128A114030F6009130F7000A128A1529
:100F380004270A128A1183120313CE0100302B02F0
:100F4800503003192A02031CAA2FAB2FD42FAA0151
:100F5800AB0110307A020318B22FB32FCA2F7A08C8
:100F6800803EC000FF300A128A15AA260A128A118A
:100F78007A08D03E83120313C000FF300A128A1584
:100F8800AA260A128A110130FA07D42FFA01013071
:100F9800CE000130BB000A128A1561260A128A1196
:100FA80008000B1DD82FD92FF72F0B11643083128F
:100FB800031381000130AA070318AB0A0030AB07FE
:100FC8000130A8070318A90A0030A907033029022D
:100FD800E83003192802031CF22FF32FF72FA8017A
:100FE800A9010130B40071088A00700E8300FE0E5A
:060FF8007E0E0900013429
:101C5E00013401340134013401340134013483126E
:101C6E000313B9011E30B8000430BB000800640035
:101C7E008001840A04060319003404063F2E8316DD
:101C8E0003138801091189100A128A11C7260A1234
:101C9E008A150800831603130608073886000808FD
:101CAE00F0398800811383120313881508158814E0
:101CBE0008140800F20101300A128A154E270A1282
:101CCE008A150D30F700FB30F600F60B6C2EF70B75
:101CDE006C2E712E08000A128A1546260A128A15D3
:101CEE000A128A1551260A128A150A128A11F5222B
:101CFE000A128A158B170B170800F400F301741CD7
:101D0E00892E8A2E8C2E7208F3070310F20D031003
:101D1E00F40C7408031D942E952E862E730808005D
:101D2E007E088A007F0882000A128A1597260A12F8
:101D3E008A158000840A04087D0603190034FF0A00
:101D4E000319FE0A9B2E83120313C100F2014008F1
:101D5E000A128A154E270A128A15F201F20A831206
:101D6E00031341080A128A154E270A128A15080013
:101D7E000A128A1561260A128A159030F600C230B0
:101D8E00F7000A128A1504270A128A151A308312CE
:101D9E000313BE005E30BD006D30BC00BC0BD52EF3
:101DAE00BD0BD52EBE0BD52EDC2E033083120313A6
:101DBE00BB000800F4000A128A11DE240A128A15EA
:101DCE00F5007408031DEC2EED2EEF2E7508032F73
:101DDE00750A0319F32EF42EFB2E7B080319F82E29
:101DEE00F92EFB2EFB01ED2E750A031DFF2E002F83
:101DFE00022F0130FB00FF300800F20177080A12B3
:101E0E008A154E270A128A151C2FF201F20A76083D
:101E1E0084000A128A1100230A128A150A128A15E0
:101E2E004E270A128A150130F607760884000A1228
:101E3E008A1100230A128A15003A031D272F282F14
:101E4E000C2F0800F601F701721C2E2F2F2F352FA5
:101E5E007408F6070318F70A7508F7070130031020
:101E6E00F40DF50DFF3E031D362F01300310F30C5C
:101E7E00F20CFF3E031D3D2F72087304031D482F05
:101E8E00492F2B2F7708F3007608F2000800F50093
:101E9E007218522F562F831203130915592F8312BE
:101EAE00031309117508F03988008914A630F30060
:101EBE00F30B5F2F000083120313891075080F397F
:101ECE00F30003300310F30DFF3E031D692F0310C3
:101EDE00730D88008914A630F300F30B742F0000E5
:101EEE008312031389101B30F4009E30F300F30BA2
:101EFE007E2FF40B7E2F00000800831203133C0884
:101F0E003D0403198B2F8C2FB92F0130F900982F18
:101F1E0001300310BC0DBD0DFF3E031D902F01308F
:101F2E00F907BD1F9B2F9C2F8F2F3D083F02031DCE
:101F3E00A22F3C083E02031CA52FA62FAC2F3C0857
:101F4E00BE023D08031CBF03BF0201300310BD0CCF
:101F5E00BC0CFF3E031DAD2F0130F902031DB82F3F
:101F6E00B92F9C2F3F08BD003E08BC000800F601AB
:101F7E00F701720873040319C52FC62FFB2F01300A
:101F8E00F800D22F01300310F20DF30DFF3E031DAA
:101F9E00CA2F0130F807F31FD52FD62FC92F0130C6
:101FAE000310F60DF70DFF3E031DD72F73087502B4
:101FBE00031DE32F72087402031CE62FE72FEE2F8A
:101FCE007208F4027308031CF503F502761401304F
:101FDE000310F30CF20CFF3E031DEF2F0130F8023D
:101FEE00031DFA2FFB2FD62F7708F3007608F20089
:021FFE000800D9
:02400E00FB3F76
:00000001FF
